:10000000000001308A00DC29853090000030F800C3
:1000100006389200FF3083169200831223112308C2
:1000200083168700831207110C309700A310230852
:1000300083168700831287100C309D0095011708E6
:10004000CF3997009B011D08CF399D0010308316D2
:100050008600403087008312A3000030831688009A
:1000600083128A110A12F4292508A6003F30A7003E
:10007000F701F801260803102718F707F70CF80C0A
:10008000A718F707F70CF80C2719F707F70CF80C67
:10009000A719F707F70CF80C271AF707F70CF80C55
:1000A000A71AF707F70CF80C271BF707F70CF80C43
:1000B000A71BF707F70CF80C7808A700B430A800C6
:1000C0002808F8012702031868282708F700742871
:1000D000F7010830A900A70DF70D280877020318CB
:1000E000F700F80DA90B6B2878083E3EF8000800D1
:1000F000263084008313000803198B280630F8008B
:10010000F701F70B8128F80B80287B30F700F70BFD
:100110008728800B7E280800831606108312061499
:100120008316861083128610080083160611831228
:100130000615831686118312861108008316861011
:100140008312861083168611831286118316061079
:1001500083120610831606118312061108008316F7
:1001600006108312061083168610831286148316D7
:100170000611831206158316861183128611043028
:10018000A500FA30A6007820A50BC1289E20080003
:10019000831606168312061ED1280130F800D328D4
:1001A000D3280030F80008008316061083120610CA
:1001B0008316861083128614831606118312061581
:1001C00083168611831286110830A500FA30A60026
:1001D0007820A50BE6289E200800831606118312BE
:1001E0000611831686118312861583160610831254
:1001F000061483168610831286100430A500FA3088
:10020000A6007820A50BFF289E2008008C209520B2
:1002100008008C1ED9298C1E0B291A08A40024085A
:10022000553A03193229113A03194229163A03198A
:1002300051291E3A031959297B3A03196129063AB3
:1002400003196329083A03196C290A3A03196E291C
:10025000753A03197729073A03198729083A0319C8
:10026000C829D8292008593C031C40290130A0077F
:100270002008A5003420780895001430A6007820C6
:100280000000D929A00803194F290130A002200835
:10029000A5003420780895001430A60078200000CE
:1002A000D92973309B001430A60078205E309B0063
:1002B000D9294B309B001430A60078205E309B007B
:1002C000D9298C20D929831606108312061083168B
:1002D000861083128614D9299520D92983160611F0
:1002E000831206118316861183128615D929831667
:1002F0000811831208150330A500C830A600782025
:10030000A50B7D298316081183120811D92922080B
:1003100021020318AD29AF209E200430A500FA3039
:10032000A6007820A50B8F29C820780BA029D420FF
:10033000C820780B9D29ED209F290621A10AAC2910
:10034000A20AD420C820F808031DAA29A10AD42093
:100350000621AC29D4200621C629ED20C820780B1F
:10036000BB29D420C820F808031DB929A20A0621F8
:10037000BA29AF20C629A10AD420C820780BC329E6
:10038000D4200621C629A20AD42006210000D9299A
:1003900083160812831208160430A500FA30A6004E
:1003A0007820A50BCE298316081283120812D929AA
:1003B0009E208A110A12F52903081F398300813013
:1003C00083169900A6309800903083129800A001FF
:1003D000FF30A30083161F149F141F159F110730B1
:1003E0009C008313831204280929C820F429F729C3
:02400E003A373F
:00000001FF
;PIC16F877A
;CRC=3CB6  CREATED="21-Nis-25 11:53"
